:400000000080002011000000410700004107000010B500F0B5FBC046F8B5234D12232B6000F03CFE214800F037FF012000F056FE052000F04DFD1E4A1E4B1A601E4E80275C
:40004000FF0537601D4A116802230B4313601C4A1C4B1A6000241C4B1C601C4A136808218B431360FA20C00000F0E4FD184800F025FDA8229201174B1A60174A174B1A60F3
:4000800080221206164B1A60164B1C604022164B1A601649082000F0FFFC082000F0F0FC37602C60F8BDC04630001040001BB7000600008004010B400C020B4078002E40D6
:4000C0002D3E00007C002E4064F02E406CF02E40DC0500000003014040FF00800000014008010B4000010B4004010140F50D000010B572B60022224B1A6000240FE02148A0
:400100006200131959000B00411889881A5AC31858880004104300F00DFB0134E4B2012CEDD9EE221206184B1A6099231B04174A1360174A1360174A1360174A1360174A96
:400140001360174A117806230B43DBB21370D8221204144B1A602222134B1A60134A144B1A602022134B1A60134A144B1A60144A144B1A60FFF750FF00F0CCFA10BDC0460B
:400180006CF02E4050210000000002400001024000500F4010500F4020500F4030500F4000700F400800044000010440B613DB0008010440180104404992180008020440C4
:4001C000010018000803044010B5064C2378002B07D1054B002B02D0044800E000BF0123237010BD4801002000000000441C0000084B10B5002B03D00749084800E000BF08
:4002000007480368002B00D110BD064B002BFBD09847F9E7000000004C010020441C0000C00000200000000030B500230CE0CC180722D21A050015412A00D20701D5312214
:4002400000E0302222700133072BF0DD00230B7230BDC04670B594B004000E0002AD2900FFF7E2FF009523003200044905A801F0BBF805A800F05CFB14B070BD481C0000F9
:4002800010B5002000F0E8FB012000F0D9FB10BD10B5012000F0E0FB002000F0D1FB10BD10B50C00002805D0084800F041FBFFF7EFFF04E0064800F03BFBFFF7E1FF2000FE
:4002C00000F036FB034800F033FB10BD601C0000701C0000801C000000B58FB002000B00084901A801F080F801A800F021FB002000F036FB012000F033FB002000F030FB2F
:400300000FB000BD881C000010B500F01DFB002000F026FB012000F023FB002000F020FB10BDC04610B5064800F002FB002000F023FB012000F020FB002000F01DFB10BD23
:40034000B81C000010B5002000F016FB012000F013FB002000F010FB10BDC046F8B507000A49FFF777FF00260DE00724A41B3B00234101251D40280000F0E6FA29002000E3
:40038000FFF7AAFF0136072EEFDDF8BDF01C000070B50E00FF3845424541EDB2002404E031002800FFF7B0FF0134072CF8DD70BD10B500F03DFB002801D1002400E0802490
:4003C00000F02EFB002802D040231C43E4B200F01FFB002802D020231C43E4B200F010FB002802D010231C43E4B200F001FB002802D008231C43E4B200F0F2FA002802D05D
:4004000004231C43E4B200F0E3FA002802D002231C43E4B200F0D4FA002802D001231C43E4B203492000FFF715FF200010BDC046041D000010B500F0FBFA002801D100249C
:4004400000E0802400F0ECFA002802D040231C43E4B200F0DDFA002802D020231C43E4B200F0CEFA002802D010231C43E4B200F0BFFA002802D008231C43E4B200F0B0FAA0
:40048000002802D004231C43E4B200F0A1FA002802D002231C43E4B200F092FA002802D001231C43E4B2200010BDC04670B5AAB062B600F0C3F9002000F06AFA012000F03D
:4004C00067FA002000F070FA002000F055FA002000F03AFA002000F043FA774800F028FA764800F025FA764800F022FA754800F01FFA012000F0B0FA012000F0A1FA7248E2
:4005000000F016FA0024002511E0E5B22800FFF725FFFFF707FFFFF74BFF854205D06B490020FFF7BDFE0023B7E00134A4B2FF2CEBD9674800F0FCF95520FFF70FFFFFF714
:4005400037FF85420BD003002A00624904A800F04BFF04A90020FFF7A3FE00239DE02A005D4904A800F040FF04A800F0E1F9FFF7D9FEFFF71DFF552805D058490020FFF7D8
:400580008FFE002389E0564800F0D2F9554800F0CFF90A26002E06D07100FA20800000F099FC040000E0504C31000020FFF7F0FEFFF7C8FEFFF73EFF051E17D0200000F0F2
:4005C0002FFE00F06BFE02000B000096474904A800F00AFF04A800F0ABF945490020FFF739FE44492800FFF735FE39E03100FF20FFF7CEFEFFF7A6FEFFF71CFF0500FF28A2
:4006000017D0200000F00CFE00F048FE02000B000096394904A800F0E7FE04A800F088F93349FF20FFF716FE32492800FFF712FE16E0200000F0F4FD051C00F02FFE02003B
:400640000B000292039300962C4904A800F0CCFE002E07D0012E01D9013E9BE7002699E700231AE0002C13D02549281C00F0BEFC00F014FE00900191029A039B214904A863
:4006800000F0B2FE04A90120FFF70AFE012304E01D490020FFF704FE0023002B04D01B490120FFF7FDFD03E019490020FFF7F8FD00202AB070BDC046141D0000481D00009E
:4006C000841D0000B81D0000181E0000581E00008C1E0000C01E0000181F0000481F0000781F0000901F00009F860100C41F00000C20000018200000202000006820000037
:4007000000007A449C200000D82000000C210000382100000323044A1360044A13600022034B1A607047C0463000304030003140000E3F4010B50A00002100F04DFE10BDAC
:4007400010B500F01DFE03680C2B00D1FEE7FEE710B50300084A1068C318084A9A1A802A02DC054A136005E000F00AFE0C2303600120404210BDC046C4000020A001002025
:4007800070B50F4E0F4D13E029686B68AC68002202E001C901C30432A242FAD1E868002202E0002102C304328242FAD11035013E002EE9D100F0EAFDFFF778FEFEE7C046E0
:4007C000010000006822000010B50E4A136801218B43136000230AE0032B03D89A000A49505800E009489900094A885001332F2BF2D9FFF77DFC034A116801230B43136060
:4008000010BDC0460000104000000000410700000000002010B500F075F810BD10B500F01DF810BD10B5044A1368802109060B431360FFF7EFFF10BD0000244010B5064B7D
:400840001B78002B04D1FFF7E9FF0122024B1A70FFF7E8FF10BDC04664010020154A164B1A600023154A13601549164A1160164A16490A6007201649086016490B6006385B
:400880001549086015490A60154A13600421154A1160154A1360154A1360154A1360154A1360154A1360154A13601268144B1A807047C0460B0000020000244040002440B2
:4008C00001000A00480024400700008000032440040324401003244044002440000224400402244050002440880E2440C80E2440480F2440080F2440C80F2440880F2440A5
:4009000066010020064A1168064B0B40902109040B431360044B1A88044B1A607047C04600010240FFFF0FFF66010020880F244070B50500002402E000F0BEFA0134285D72
:400940000028F9D170BDC046044A1368DBB201218B430840184310607047C0460001044004490A68D2B240239A43800118401043086070470001044004490A687F231A4029
:40098000C301D8B2104308607047C0460001044004490A68D2B202239A43400018401043086070470001044004490A68D2B204239A438000184010430860704700010440C2
:4009C000024B1868C00801231840704704010440024B1868400801231840704704020440024B1868800801231840704704020440024B1868C0080123184070470402044070
:400A0000024B1868000901231840704704020440024B1868400901231840704704020440024B1B68012018407047C04604020440024B1B68012018407047C046040304402F
:400A400004490A68D2B240239A43800118401043086070470003044004490A68D2B240239A438001184010430860704700020440024B1B68012018407047C0460C002E40CD
:400A80001F2318401E3B8340014A13607047C04600E100E001BE704770B504000D001F2802D90020FFF7F6FF1034A40080239B059C4664442068256070BDC04610B5034B63
:400AC0001B7B584300F0E8F910BDC046C8000020F0B557464E46C0B483B0040000F0E5F90190E71E2D2F74D83F4B1B78DBB29C4208D83E4B1B78DBB29A463D4B1B78DBB213
:400B0000994631E03B4B1B78DBB29C4208D83A4B1B78DBB29A46394B1B78DBB2994623E0374B1B78DBB29C4208D8364B1B78DBB29A46354B1B78DBB2994615E0334B1B78F0
:400B4000DBB29C4208D8324B1B78DBB29A46314B1B78DBB2994607E02F4B1B78DBB29A462E4B1B78DBB299462D4BDE5D2F2E09D92A2C07D919222B4B1A60052000F08CF96C
:400B8000192503E0274B1D683F231D40B54206D9234BDA5D234B1A60052000F07DF91F4B9C4664442378DBB21F4A13601F4B52461A601F4B4A461A600520FFF77FFFB542F8
:400BC0000AD2174BDA5D174B1A60052000F064F902E00020FFF75EFF019800F06AF903B00CBC91469A46F0BD40F3FF0F41F3FF0F42F3FF0F43F3FF0F44F3FF0F45F3FF0F7D
:400C000046F3FF0F47F3FF0F48F3FF0F49F3FF0F4AF3FF0F4BF3FF0F4CF3FF0F4DF3FF0F5C2100002CFF0B4028FF0B401CFF0B4020FF0B4010B504000F4A116801230B431E
:400C400013600E4A0E4B1A600E4A1368802109020B431360002809D100200CE00120FFF72DFFFFF705FF002804D1013C002CF5D1102000E0002010BD60F02E400220000042
:400C800078002E4010002E40034B1868C0231B02184000D00120704700010B4010B50D4B1A6801218A431A601A68022082431A60094A10683024A043203C20431060106822
:400CC000093CA043014311601A68802109060A431A6010BD00F02E4000FF2E4070B51D4B1B6801241C40002802D0012816D02BE0184B196801229143196019680220814326
:400D00001960154B19682E3081432038014319601968093881430A431A6018E00D4B1A6802218A431A600C4A10680725A843014311601168302081431038014311601968F4
:400D400001220A431A6002E00020FFF7A3FE200070BDC04600F02E4000FF2E4010B500F0A4F8044A1368C02109020B43136000F0A0F810BD00010B4010B500F096F80849D6
:400D80000A68084B1A408024E40122430A600A6813408022120213430B6000F08AF810BD00010B40FF3FFFFF70B5050000F07DF80400FFF769FF002803D0FFF7DDFF0121D9
:400DC00000E0002108482840084A1568084B2B40184310601368012901D1FFF7BFFF200000F067F870BDC0460404040010020B40FBFBFBFF10B5244B1B685B0715D5234B4B
:400E00005B685B070ED5224B596A042001401F4C62688A4362605A6A82435A629B69002B00D098470420FFF7BFFF174B1B685B0518D5164B5B685B0510D5154B596A8022F6
:400E4000D2001140114842688A434260596A114A0A405A62DB69002B00D098478020C000FFF7A2FF084B1B685B030CD5074B5B685B0304D5064B1B6A002B00D098478020F3
:400E8000C002FFF791FF10BD10020B40DC00002068010020FFFBFFFF0230800803D00138FDD1C046C046C0467047EFF3108072B6704780F310887047044B1B681F2213406D
:400EC000082BF9D0024B18607047C0460802244040022440002243088B4274D303098B425FD3030A8B4244D3030B8B4228D3030C8B420DD3FF22090212BA030C8B4202D3A8
:400F00001212090265D0030B8B4219D300E0090AC30B8B4201D3CB03C01A5241830B8B4201D38B03C01A5241430B8B4201D34B03C01A5241030B8B4201D30B03C01A5241EB
:400F4000C30A8B4201D3CB02C01A5241830A8B4201D38B02C01A5241430A8B4201D34B02C01A5241030A8B4201D30B02C01A5241CDD2C3098B4201D3CB01C01A5241830900
:400F80008B4201D38B01C01A524143098B4201D34B01C01A524103098B4201D30B01C01A5241C3088B4201D3CB00C01A524183088B4201D38B00C01A524143088B4201D317
:400FC0004B00C01A5241411A00D20146524110467047FFE701B5002000F006F802BDC0460029F7D076E770477047C046F0B5564644465F464D46F0B444024600C70F83B0B9
:401000008846650A360EBA463DD0FF2E22D00023EC00802599469B46ED0425437F3E43465C025800DB0F640A000E984636D0FF2830D080230021E400DB041C437F38301AE2
:401040000190484642460843724E800030587A4013008746002D44D108239946063B9B46DDE70122FF2000241A406402C305640AD2071C431443200003B03CBC904699467F
:40108000A246AB46F0BD002D20D104239946033B9B46C4E7002C17D1022102E0002C0AD10121321A01924A4643460A435A48920082587B409746200000F044F9431F76303A
:4010C0009C4040420021BAE70321B8E7280000F039F9431F9D4000237630464299469B469DE70C239946093B9B4698E780240022E403FF20B9E70024C2468B465A4653469B
:40110000022AAED0032A7DD0012A31D1012200201A400024A9E70122101A1B2856DD1A4000200024A1E78023DB031D424BD18023DB032B435C02640A3A00FF2095E76D012A
:401140006001854230D2019A0024013A01921B220127290064006D00002901DBA84201D82D1A3C43013A002AF3D16A1E95412C4301987F300028CEDD620704D00F222240EA
:40118000042A00D00434220103D5244A019814408030FE2800DD64E70122A401640AC0B21A4062E72C00A9E72D1A1A220124CFE76B02BCD500248023DB031C436402640A6A
:4011C0004246FF2051E71C42B3D1F4E721002022C140101A8440621E94410C43620704D00F222240042A00D00434620104D5012201201A40002438E70122A401640A1A40AA
:40120000002032E78023DB031C436402640A5246FF202AE78C210000CC210000FFFFFFF770B5041E28D000F08DF89E231B1A962B0ADC9622D21A94406202520AD8B2520204
:40124000520AC005104370BD992B18DC9922D21A9440114A2240610704D00F210C40042C00D00432510103D50B4B1A409F231B1A9201520AD8B2E2E700200022DFE70522AD
:401280002500121AB921D5402200C91A8A40541EA2412C001443DCE7FFFFFFFB4200120E511C4302C9B270B55D0AC40F012915DDE02189008C466D071B0B6244002128009D
:4012C0000D0D2D052B431C4D52052B40520813435B00E4075B082343190070BD002A15D1002D1FD0280000F02DF80A281DDC0B232A001B1ADA4013000200153295400F4A3F
:401300001B03121A52051B0B520DD7E7002D06D080221B0B120313436D07094ACEE7084A0023CBE700220023C8E703000B3B9D402B000025E3E7C046FFFF0F80890300009D
:40134000FF0700001C2101231B04984201D3000C10391B0A984201D3000A08391B09984201D30009043902A2105C40187047C046040302020101010100000000000000007A
:40138000014B18687047C046440100200E4B70B500251E000D4CE41AA410A54204D0AB00F35898470135F8E700F04CFF084B00251E00084CE41AA410A54204D0AB00F35846
:4013C00098470135F8E770BD5022000050220000502200005822000003008218934202D019700133FAE770470EB410B59DB002A9029008610B4882248860486101204042BC
:401400001FABC881084804CBA400006801938C8100F06EF80023029A13701DB010BC08BC03B01847FFFFFF7F44010020F0B58E6885B007000C00039201939E4243D890232B
:401440008A89DB001A423ED003250969236801985B1A029363695D43EB0F5D19029B6D1001331B18AB4200D91D00530510D52900380000F041FB061E14D0029A216900F024
:40148000D0FAA289194B134080221343A38112E02A00380000F090FB061E0CD12169380000F0DEFA0C23402201203B60A38940421343A38117E0029B2661F6182660656120
:4014C000019EED1AA560019BB34200D21E0032000399206800F0AEFA0020A3689B1BA36023689E19266005B0F0BDC0467FFBFFFFF0B59FB0029005938B890F0016001B06CE
:4015000010D50B69002B0DD1402100F0F5FA38603861002804D10C23029A01381360D8E040237B61002306AD6B6120336B761033AB7634002378002B03D1A31B049312D02E
:4015400003E0252BF9D00134F4E7A31B320039000298FFF76BFF431C00D1B4E06A69049B944663446B612378002B00D1ABE00122002352426A6002A95432521801342B6098
:40158000EB60AB601370AB65534E21780522300000F03CFA002807D00123801B83402A68013413432B60EFE72B68DA0604D55322202102A8121811701A0704D553222B217A
:4015C00002A81218117022782A2A03D0099B00200A210EE0059A111D12680591002A01DB099204E05242EA60022213432B6001340BE02278303A092A04D84B4301349B180A
:401600000120F6E7002800D0099323782E2B1ED163782A2B0AD1059B02341A1D1B680592002B01DA01235B42079310E000230A201A0001346B6021783039092904D84243B6
:40164000013452180123F6E7002B00D00792234E21780322300000F0D9F9002806D04023801B83402A68013413432B60217806221B48661C297600F0C9F9002812D0194B49
:40168000002B06D10722059B073393430833059314E005AB00933A00134B2900029800E000BF07E005AB00933A000F4B2900029800F08AF80390039B013304D06B69039AAE
:4016C0009B186B6135E7BB890B985B0601D5012040421FB0F0BDC0460E2200001422000018220000000000002D140000F7B5170001938A680B6900900C00934200DA130010
:4017000022003B6043321278002A01D001333B6023689B0602D53B6802333B60062523681D401ED0230043331B785A1E9341226892061CD53020E1184331087021005A1C55
:4017400045310978A2184332023311700FE022000123193201990098089EB047431C0ED00135E3683A689B1A9D42F0DBDAE72200019943320098089DA847431C02D101200E
:40178000404220E006232068E1683A6803400025042B03D18D1AEB43DB171D40A3682269934201DD9B1AED180027BD420AD0220001231A3201990098089EB047431CDED00B
:4017C0000137F2E70020FEBDF0B58BB006920A0043320793059004920A7E0C00109B6E2A00D1ABE011D8632A22D009D8002A00D1B5E0582A00D0C5E045310A70814A4FE054
:40180000642A1DD0692A1BD0BCE0732A00D1AAE009D86F2A29D0702A00D0B3E0202209680A43226037E0752A1FD0782A33D0A9E00E001A684236111D196013683370A4E005
:4018400021681A68080606D4490604D5111D19600023D55E02E0111D19601568002D3BDA2D23049A6D42137036E021681A68080606D4490604D51568111D1960ADB202E052
:40188000111D196015685F4B227E039308276F2A1DD00A271BE022007821453211705A4A19680392081D226818600D68100602D4500600D5ADB2D30702D520231A432260F1
:4018C0001027002D03D1202322689A4322602300002243331A7002E00A274A4B03936368A360002B09DB0422216891432160002D05D1049E002B11D07BE0002D79D0049EFC
:4019000028003900FFF76CFB039B013E5B5C280033703900FFF7DEFA051EF1D1082F09D12368DB0706D563682269934202DC3023013E3370049B9B1B23612BE009681A6830
:40194000080607D4490605D5111D19601368A28A1A8004E0111D1960136862691A600023049E236116E01A68111D1960166800216268300000F04AF8002801D0801B60609B
:40198000636803E0260042363270012323610023049A1370079B09AA00932100069B0598FFF7A4FE431C02D10120404227E02369320006990598079DA847431CF4D0236857
:4019C00000259B070FD4099BE068984217DA180015E022000123193206990598079EB047431CE1D00135E368099A9B1A9D42F0DBE9E72600039B42361B7833708EE70BB00B
:401A0000F0BDC0461F22000030220000C9B28218904204D003788B4202D00130F8E700207047002310B59A4203D0CC5CC4540133F9E710BD10B5884202D98B18984201D331
:401A4000002305E09B1A013A08D3995C8154FAE7934203D0CC5CC4540133F9E710BD000070B50500002944D00C1F2368002B00DAE418280000F0D8F81E4A13681100002BFA
:401A800002D16360146031E0A3420DD92268A018834203D118685B688218226063600C6024E0A24203D813005A68002AF9D11E689819A0420BD12168711858181960824297
:401AC00014D110685268411819605A600EE0A04202D90C232B6009E021686018824203D1106852684118216062605C60280000F09CF870BD94010020032370B5CD1C9D4330
:401B0000083506000C2D01D20C2501E0002D01DBA94202D90C23336048E0300000F084F8234B1C681A002100002913D00B685B1B0DD40B2B02D90B60CC181EE08C4202D1ED
:401B4000636813601AE04B6863600C0016E00C004968E9E7174C2368002B03D1300000F051F820602900300000F04CF8431C18D00323C41C9C43A0420DD12560300000F034
:401B800054F8200007220B30231D9043C31A0ED05A42E2500BE0211A300000F033F8431CEBD10C233000336000F03FF8002070BD9401002090010020F8B506000C0015008D
:401BC000002904D11100FFF797FF040018E0002A03D1FFF745FF2C0012E000F027F885420ED929003000FFF787FF071E07D021002A00FFF716FF21003000FFF731FF3C0061
:401C00002000F8BD002370B5064C050008002360FEF79EFD431C03D12368002B00D02B6070BDC04698010020704770470B1F1A68101F002A04DA891804390B68D01804381F
:401C4000704700000000000025733A20307825303258202842494E3A202573290D0A00000D0A2A2A2A20535543434553533A20000D0A212121204641494C5552453A2000BD
:401C8000202A2A2A0D0A000020203E3E20534843502050756C736520285368696674696E67204269742025642C2056616C7565202564290D0A0000002D2D2D2052434C4BCB
:401CC0002050756C736520284C617463683A2044617461205472616E7366657220746F204F757470757429202D2D2D0D0A000000494E50555420446174612028534552292E
:401D0000000000004F5554505554204461746120285129000D0A3D3D3D3D3D3D3D3D3D3D3D3D3D3D3D3D3D3D3D3D3D3D3D3D3D3D3D3D3D3D3D3D3D3D3D3D3D3D3D3D3D3D3D
:401D40003D3D3D3D0D0A00002020373448433539352046756E6374696F6E616C205465737465722028536F6674776172652053706565642054657374292053746172746595
:401D8000640D0A003D3D3D3D3D3D3D3D3D3D3D3D3D3D3D3D3D3D3D3D3D3D3D3D3D3D3D3D3D3D3D3D3D3D3D3D3D3D3D3D3D3D3D3D3D3D0D0A00000000212121205741524EE0
:401DC000494E473A20537065656420746573742072656C696573206F6E20736F6674776172652064656C6179732028437944656C617955732920616E64206973206F6E6C70
:401E00007920616E20657374696D6174652E202121210D0A000000000D0A2D2D2D205445535420313A2046756C6C20536869667420616E64204C61746368204379636C652D
:401E40002028536C6F772C2077697468204C6F6729202D2D2D0D0A0044617461204D69736D6174636820696E2046756C6C204379636C65205465737420284F757470757421
:401E800020213D20496E707574292E000D0A2D2D2D205445535420323A204D656D6F727920496E7465677269747920436865636B2028536C6F7729202D2D2D0D0A00000049
:401EC0004C617463682F4D656D6F7279204661696C7572653A204F7574707574206368616E67656420284578706563746564203078253032582C20476F74203078253032AB
:401F0000582920776974686F75742052434C4B2070756C73652E00004D656D6F727920636865636B204F4B20284F757470757420737461626C6520617420307825303258C8
:401F4000292E0D0A0000000046696E616C204C61746368204661696C7572653A20457870656374656420307835352061667465722052434C4B2E000046696E616C204C61F4
:401F800074636820636865636B204F4B2E0D0A000D0A2D2D2D205445535420333A20536F66747761726520536869667420436C6F636B2053706565642054657374202D2D5A
:401FC0002D0D0A000D0A212121204641494C55524520617420657374696D6174656420252E3166206B487A202854657374203078303029202844656C617920256C752075A4
:402000007329202121210D0A0000000045787065637465640000000041637475616C00000D0A212121204641494C55524520617420657374696D6174656420252E3166203D
:402040006B487A202854657374203078464629202844656C617920256C7520757329202121210D0A0000000020203E3E20537461626C6520617420657374696D617465649A
:4020800020252E3166206B487A202844656C617920256C75207573292E0D0A004D617820537461626C65204672657175656E63792028455354494D41544544293A20252EC5
:4020C0003166206B487A20287E252E3266204D487A292E0D0A00000053706565642074657374206661696C656420696D6D6564696174656C792028636865636B20636F6EFE
:402100006E656374696F6E73292E0000373448433539352050415353454420414C4C2042415349432046554E4354494F4E414C2054455354532E0000373448433539352044
:402140004641494C454420544553542E0000000000300F40000400400F400004030405060708090A0B0C0E0F101112131415161718191B1C1D1E1F20212223252627282907
:402180002A2B2E2F30313233343500003E1100006210000020110000F810000020110000EC10000020110000F81000006210000062100000EC100000F8100000A411000041
:4021C000A4110000A41100002611000062100000621000000C110000F61000000C110000EC1000000C110000F61000006210000062100000EC100000F6100000A411000060
:40220000A4110000A4110000B01100004300232D302B2000686C4C00656667454647003031323334353637383941424344454600303132333435363738396162636465663D
:4022400000000000F8B5C046F8BC08BC9E467047F1010000C9070000F8B5C046F8BC08BC9E467047C901000078220000C0000020880000005800000000000000A00100202B
:40228000010000000000C4098813000005000000404B4C00F00000000404040000000000000000000000000000000000000000000000000000000000000000000C220000AF
:4022C000000000000000000000000000000000000000000000000000000000000000000000000000000000000000000000000000000000000000000000000000E4000020DA
:40230000000000000000000000000000000000000000000000000000000000000000000000000000000000000000000000000000000000000000000000000000000000009D
:40234000000000000000000000000000000000000000000000000000000000000000000000000000000000000000000000000000000000000000000000000000000000005D
:40238000000000000000000000000000000000000000000000000000000000000000000000000000000000000000000000000000000000000000000000000000000000001D
:4023C00000000000000000000000000000000000000000000000000000000000000000000000000000000000000000000000000000000000000000000000000000000000DD
:020000040003F7
:0200000490303A
:02000000E60216
:0200000490402A
:4000000000000000000000000000000000000000000000000000000000000000000000000000000000000000000000000000000000000000000000000000000000000000C0
:400040000000000000000000000000000000000000000000000000000000000000000000000000000000000000000000000000000000000000000000000000000000000080
:0200000490501A
:0C00000000021A1711AA00011A21F7AC27
:0200000490600A
:0100000001FE
:00000001FF